:100000000C9446000C9465000C9465000C946500FB
:100010000C9465000C9465000C9465000C946500CC
:100020000C9465000C9465000C9465000C946500BC
:100030000C9465000C94E3000C9465000C9465002E
:100040000C9465000C9465000C9465000C9465009C
:100050000C9465000C9465000C9465000C9465008C
:100060000C9465000C9465000C9465000C9465007C
:100070000C9465000C9465000C9465000C9465006C
:100080000C9465000C9465000C94650011241FBE4F
:10009000CFEFD0E4DEBFCDBF11E0A0E0B1E0E2EFF2
:1000A000F8E000E00BBF02C007900D92A231B1074B
:1000B000D9F721E0A2E1B1E001C01D92A832B20758
:1000C000E1F70E9446030C9477040C940000CF9350
:1000D000DF9300D000D0CDB7DEB769837A838B83FE
:1000E0009C8389819A81AB81BC818093000190932C
:1000F0000101A0930201B09303018091000190914E
:100100000101A0910201B09103018093130190932A
:100110001401A0931501B093160100000F900F90E9
:100120000F900F90DF91CF910895CF93DF93CDB7CC
:10013000DEB781E890E02BE0FC01208388E890E0C6
:100140002DE730E0FC01318320838FE690E022E050
:10015000FC01208384E890E0FC01118210828091F0
:10016000000190910101A0910201B09103018093DF
:10017000130190931401A0931501B09316018FE51C
:1001800090E02FE530E0F90120812068FC01208318
:100190000000DF91CF910895CF93DF93CDB7DEB705
:1001A00081E890E0FC0110820000DF91CF9108957A
:1001B000CF93DF93CDB7DEB781E0809312010000CB
:1001C000DF91CF9108951F920F9200905F000F92E0
:1001D000112400905B000F922F933F934F935F93F6
:1001E0006F937F938F939F93AF93BF93EF93FF93FF
:1001F000CF93DF93CDB7DEB78091130190911401B7
:10020000A0911501B09116010197A109B109809340
:10021000130190931401A0931501B09316018091DE
:10022000130190911401A0911501B0911601892B31
:100230008A2B8B2B91F40E94D80080910001909121
:100240000101A0910201B0910301809313019093E9
:100250001401A0931501B09316010000DF91CF9116
:10026000FF91EF91BF91AF919F918F917F916F918E
:100270005F914F913F912F910F9000925B000F90F3
:1002800000925F000F901F901895CF93DF93CDB72A
:10029000DEB72C970FB6F894DEBF0FBECDBF6D83CF
:1002A0007E838F83988729873A874B875C878D81E8
:1002B0009E81AF81B88529853A854B855C85BC01D7
:1002C000CD010E945504DC01CB0189839A83AB8365
:1002D000BC8389819A81AB81BC81892B8A2B8B2B32
:1002E00029F489859A85AB85BC8511C089859A8555
:1002F000AB85BC858D839E83AF83B88789819A81C6
:10030000AB81BC8189879A87AB87BC87D0CFBC0182
:10031000CD012C960FB6F894DEBF0FBECDBFDF9196
:10032000CF910895CF93DF9300D01F92CDB7DEB762
:1003300089837B836A8389818A3031F48A819B81B6
:10034000BC018DE00E94920180EC90E0FC01808174
:10035000882F90E080729927892BB1F386EC90E08A
:100360002981FC01208380E090E00F900F900F9096
:10037000DF91CF910895CF93DF9300D0CDB7DEB753
:100380009A83898389819A818230910509F472C0A8
:10039000833091052CF4009759F00197A1F0FDC02E
:1003A0008330910509F4ADC0049709F4F1C0F5C09C
:1003B00080E09FE4909318018093170181E090E022
:1003C0009A838983F8C080E290E0FC018081882FC5
:1003D00090E080959095837099270197A9F480917A
:1003E0001701909118018F3F9F4748F480911701A2
:1003F000909118010196909318018093170182E063
:1004000090E09A838983D2C080E290E0FC018081F1
:10041000882F90E080959095837099270297A1F49A
:100420008091170190911801892B49F08091170153
:10043000909118010197909318018093170183E020
:1004400090E09A838983B2C080E290E0FC018081D1
:10045000882F90E08095909583709927039709F0F5
:10046000A5C0109218011092170184E090E09A83C1
:1004700089839CC080E290E0FC018081882F90E01D
:100480008095909583709927892B29F481E090E0DD
:100490009A8389838DC080E290E0FC018081882F5F
:1004A00090E080959095837099270297A1F48091B0
:1004B000170190911801892B49F0809117019091B3
:1004C00018010197909318018093170183E090E041
:1004D0009A8389836DC080E290E0FC018081882F3F
:1004E00090E08095909583709927039709F060C0FC
:1004F000109218011092170184E090E09A8389838A
:1005000057C080E290E0FC018081882F90E08095C8
:10051000909583709927892B29F481E090E09A8344
:10052000898348C080E290E0FC018081882F90E0C0
:1005300080959095837099270197A9F48091170170
:10054000909118018F3F9F4748F480911701909137
:1005500018010196909318018093170182E090E0B2
:100560009A83898327C080E290E0FC018081882FF4
:1005700090E080959095837099270397D9F4109215
:1005800018011092170184E090E09A83898312C0C9
:1005900081E090E09A8389830EC010921801109236
:1005A000170181E090E09A83898305C0000003C0B1
:1005B000000001C0000080911701909118010E9475
:1005C000E80289819A810F900F90DF91CF91089571
:1005D000CF93DF9300D000D000D0CDB7DEB79E839D
:1005E0008D838D819E819C838B831A8219822EC07C
:1005F00088E290E028E4FC01208388E290E028E291
:1006000030E0F90140812D813E81098002C036959C
:1006100027950A94E2F72170242BFC01208388E2BD
:1006200090E028E230E0F90120812260FC01208383
:1006300088E290E028E230E0F90120812061FC01AD
:10064000208389819A8101969A83898389819A81FD
:10065000409774F288E290E022E4FC01208388E273
:1006600090E028E230E0F90120812061FC01208344
:1006700088E290E0FC011082000026960FB6F89404
:10068000DEBF0FBECDBFDF91CF9108950F931F93B3
:10069000CF93DF93CDB7DEB72A970FB6F894DEBFBE
:1006A0000FBECDBF87E290E02FEFFC01208388E2F0
:1006B00090E0FC01108281E290E0FC01108282E275
:1006C00090E02FEFFC01208389E191E09A878987F0
:1006D00081E090E09C838B831092190181E090E08F
:1006E000A0E0B0E080931A0190931B01A0931C013D
:1006F000B0931D0180911A0190911B01A0911C01E2
:10070000B0911D0180931E0190931F01A0932001C1
:10071000B09321018BEB91E0909323018093220110
:1007200081E090E0A0E0B0E08D839E83AF83B88746
:100730008D819E81AF81B885BC01CD010E9467008B
:100740000E9495001A821982A0C089819A81880F1F
:10075000991F9E012F5F3F4F820F931F0896FC0148
:1007600080819181FC012581368147815085898175
:100770009A81880F991FBE016F5F7F4F860F971F69
:100780000896FC0180819181FC0181819281A38185
:10079000B481281739074A075B0708F445C08981E7
:1007A0009A81880F991F9E012F5F3F4F820F931FE1
:1007B0000896FC010081118189819A81880F991F17
:1007C0009E012F5F3F4F820F931F0896FC0180818F
:1007D0009181FC012185328589819A81880F991F39
:1007E000AE014F5F5F4F840F951F0896FC0180811B
:1007F0009181FC018081082E000C990BF90109956B
:10080000F801808389819A81880F991F9E012F5F4B
:100810003F4F820F931F0896FC0180819181FC015C
:10082000158216821782108689819A81880F991FF6
:100830009E012F5F3F4F820F931F0896FC0160813E
:10084000718189819A81880F991F9E012F5F3F4F87
:10085000820F931F0896FC0180819181FC01258104
:100860003681478150858D819E81AF81B885820F09
:10087000931FA41FB51FFB0185839683A783B087B1
:1008800089819A8101969A83898329813A818B8112
:100890009C812817390708F458CF00008091120175
:1008A0008823E1F3109212014DCFA1E21A2EAA1B68
:1008B000BB1BFD010DC0AA1FBB1FEE1FFF1FA21710
:1008C000B307E407F50720F0A21BB30BE40BF50B0D
:1008D000661F771F881F991F1A9469F76095709596
:1008E000809590959B01AC01BD01CF010895F894CE
:0208F000FFCF38
:1008F2000100000000000002000000009201000060
:020902000000F3
:00000001FF
