:100000000C9446000C9465000C9465000C946500FB
:100010000C9465000C9465000C9465000C946500CC
:100020000C9465000C9465000C9465000C946500BC
:100030000C9465000C94E3000C9465000C9465002E
:100040000C9465000C9465000C9465000C9465009C
:100050000C9465000C9465000C9465000C9465008C
:100060000C9465000C9465000C9465000C9465007C
:100070000C9465000C9465000C9465000C9465006C
:100080000C9465000C9465000C94650011241FBE4F
:10009000CFEFD0E4DEBFCDBF11E0A0E0B1E0E4ECF3
:1000A000FEE000E00BBF02C007900D92A831B1073F
:1000B000D9F721E0A8E1B1E001C01D92AA34B2074E
:1000C000E1F70E94D3050C9460070C940000CF93D5
:1000D000DF9300D000D0CDB7DEB769837A838B83FE
:1000E0009C8389819A81AB81BC818093000190932C
:1000F0000101A0930201B09303018091000190914E
:100100000101A0910201B091030180931901909324
:100110001A01A0931B01B0931C0100000F900F90D7
:100120000F900F90DF91CF910895CF93DF93CDB7CC
:10013000DEB781E890E02BE0FC01208388E890E0C6
:100140002DE730E0FC01318320838FE690E022E050
:10015000FC01208384E890E0FC01118210828091F0
:10016000000190910101A0910201B09103018093DF
:10017000190190931A01A0931B01B0931C018FE504
:1001800090E02FE530E0F90120812068FC01208318
:100190000000DF91CF910895CF93DF93CDB7DEB705
:1001A00081E890E0FC0110820000DF91CF9108957A
:1001B000CF93DF93CDB7DEB781E0809318010000C5
:1001C000DF91CF9108951F920F9200905F000F92E0
:1001D000112400905B000F922F933F934F935F93F6
:1001E0006F937F938F939F93AF93BF93EF93FF93FF
:1001F000CF93DF93CDB7DEB78091190190911A01AB
:10020000A0911B01B0911C010197A109B109809334
:10021000190190931A01A0931B01B0931C018091C6
:10022000190190911A01A0911B01B0911C01892B19
:100230008A2B8B2B91F40E94D80080910001909121
:100240000101A0910201B0910301809319019093E3
:100250001A01A0931B01B0931C010000DF91CF9104
:10026000FF91EF91BF91AF919F918F917F916F918E
:100270005F914F913F912F910F9000925B000F90F3
:1002800000925F000F901F901895CF93DF93CDB72A
:10029000DEB72C970FB6F894DEBF0FBECDBF6D83CF
:1002A0007E838F83988729873A874B875C878D81E8
:1002B0009E81AF81B88529853A854B855C85BC01D7
:1002C000CD010E942F07DC01CB0189839A83AB8388
:1002D000BC8389819A81AB81BC81892B8A2B8B2B32
:1002E00029F489859A85AB85BC8511C089859A8555
:1002F000AB85BC858D839E83AF83B88789819A81C6
:10030000AB81BC8189879A87AB87BC87D0CFBC0182
:10031000CD012C960FB6F894DEBF0FBECDBFDF9196
:10032000CF910895CF93DF9300D01F92CDB7DEB762
:1003300089837B836A8389818A3031F48A819B81B6
:10034000BC018DE00E94920180EC90E0FC01808174
:10035000882F90E080729927892BB1F386EC90E08A
:100360002981FC01208380E090E00F900F900F9096
:10037000DF91CF910895CF93DF9300D000D0CDB718
:10038000DEB79C838B838B819C8181309105D9F072
:1003900082309105C9F1892B09F08CC010921E01A1
:1003A00010921D012091440130914501809142013C
:1003B00090914301822B932B9A83898381E090E073
:1003C0009C838B8387C020914401309145018091AB
:1003D0004201909143012817390769F020914401A7
:1003E000309145018091420190914301822B932BE2
:1003F0009A8389836FC08FEF9FE79A83898382E016
:1004000090E09C838B8366C040911D0150911E013A
:10041000CA019695879596958795969587959C019F
:10042000ABE7B4E10E9451079695879568EC689F09
:100430009001699F300D1124CA01821B930B8436F1
:10044000910528F08FEF9FE79A83898302C01A8273
:10045000198280911D0190911E01803D974000F10D
:1004600080E090E4909345018093440181E090E026
:10047000909343018093420181E090E09C838B83C1
:1004800020914401309145018091420190914301B6
:10049000822B932B9A83898310921E0110921D0147
:1004A00080911D0190911E01019690931E018093F1
:1004B0001D0110C0209144013091450180914201FD
:1004C00090914301822B932B9A83898381E090E062
:1004D0009C838B8389819A810E947C058B819C817E
:1004E0000F900F900F900F90DF91CF910895CF93C1
:1004F000DF9300D0CDB7DEB79A83898389819A8153
:100500008130910589F08230910579F1892B09F0CC
:100510004CC081E090E0909343018093420181E0E0
:1005200090E09A8389834BC080914201909143016E
:100530008115904458F48091420190914301880FB5
:10054000991F909343018093420139C080914201E9
:100550009091430196958795909343018093420132
:1005600082E090E09A8389832AC080914201909131
:100570004301029758F08091420190914301969572
:100580008795909343018093420119C08091420165
:1005900090914301880F991F9093430180934201EA
:1005A00081E090E09A8389830AC081E090E0909393
:1005B00043018093420181E090E09A83898389819D
:1005C0009A810F900F90DF91CF910895CF93DF9391
:1005D00000D0CDB7DEB79A83898389819A81823032
:1005E000910509F424C1833091052CF4009779F02A
:1005F0000197C1F066C28430910509F451C284307C
:1006000091050CF4A6C1059709F439C25AC280E0DD
:1006100090E4909345018093440181E090E09A83B7
:10062000898363C280E290E0FC018081882F90E0A2
:1006300080959095877099270197A9F4809144013E
:1006400090914501029750F08091440190914501AD
:1006500096958795909345018093440183E090E0BF
:100660009A83898339C280E290E0FC018081882FDF
:1006700090E080959095877099270497B1F48091C8
:100680004401909145018115904450F480914401BA
:1006900090914501880F991F9093450180934401E3
:1006A00082E090E09A83898317C280E290E0FC01A7
:1006B0008081882F90E08095909587709927039787
:1006C00009F052C08091440190914501419778F022
:1006D0008091440190914501929582958F70892770
:1006E0009F708927909345018093440138C0809181
:1006F000440190914501099778F0809144019091CF
:1007000045019695879596958795969587959093AB
:1007100045018093440123C080914401909145019B
:10072000059768F0809144019091450196958795D1
:1007300096958795909345018093440110C08091D0
:10074000440190914501039750F0809144019091AC
:10075000450196958795909345018093440185E0E6
:1007600090E09A838983B8C180E290E0FC018081A7
:10077000882F90E08095909587709927069709F0CB
:10078000ABC180914401909145018115984078F466
:10079000809144019091450182959295907F982790
:1007A000807F982790934501809344013BC08091BE
:1007B0004401909145018115904178F48091440164
:1007C00090914501880F991F880F991F880F991FD5
:1007D000909345018093440125C0809144019091FC
:1007E00045018115904268F4809144019091450142
:1007F000880F991F880F991F90934501809344019A
:1008000011C080914401909145018115904450F4AC
:100810008091440190914501880F991F9093450163
:100820008093440184E090E09A83898355C180E2FB
:1008300090E0FC018081882F90E0809590958770F2
:100840009927892B29F481E090E09A83898346C116
:1008500080E290E0FC018081882F90E08095909567
:10086000877099270197A9F48091440190914501DF
:10087000029750F08091440190914501969587959B
:10088000909345018093440183E090E09A838983AB
:1008900025C180E290E0FC018081882F90E0809566
:1008A000909587709927039709F018C180914401AA
:1008B000909145018138910578F0809144019091A3
:1008C000450182959295907F9827807F98279093F5
:1008D00045018093440138C08091440190914501C5
:1008E000059778F08091440190914501880F991FF8
:1008F000880F991F880F991F909345018093440199
:1009000023C08091440190914501039768F0809144
:10091000440190914501880F991F880F991F90936A
:1009200045018093440110C080914401909145019C
:10093000029750F08091440190914501880F991FD2
:10094000909345018093440185E090E09A838983E8
:10095000C5C080E290E0FC018081882F90E0809506
:10096000909587709927892B29F481E090E09A83EC
:100970008983B6C080E290E0FC018081882F90E0FE
:1009800080959095877099270497B1F480914401E0
:10099000909145018115904450F4809144019091CB
:1009A0004501880F991F909345018093440182E08F
:1009B00090E09A83898394C080E290E0FC0180817A
:1009C000882F90E08095909587709927069709F079
:1009D00087C080914401909145018115984078F439
:1009E0008091440190914501929582958F7089275D
:1009F0009F70892790934501809344013BC080916B
:100A00004401909145018115904178F48091440111
:100A1000909145019695879596958795969587959A
:100A2000909345018093440125C0809144019091A9
:100A300045018115904268F48091440190914501EF
:100A40009695879596958795909345018093440157
:100A500011C080914401909145018115904450F45A
:100A60008091440190914501969587959093450119
:100A70008093440184E090E09A83898331C080E2CE
:100A800090E0FC018081882F90E0809590958770A0
:100A90009927892B39F581E090E09A83898322C0D8
:100AA00080E290E0FC018081882F90E08095909515
:100AB00087709927892BC1F481E090E09A8389831C
:100AC00013C080E090E4909345018093440181E05D
:100AD00090E09A83898309C0000007C0000005C028
:100AE000000003C0000001C0000089819A810F90BE
:100AF0000F90DF91CF910895CF93DF9300D000D076
:100B0000CDB7DEB79C838B831A8219822EC088E210
:100B100090E028E4FC01208388E290E028E230E0C5
:100B2000F90140812B813C81098002C036952795CF
:100B30000A94E2F72170242BFC01208388E290E0E4
:100B400028E230E0F90120812260FC01208388E264
:100B500090E028E230E0F90120812061FC0120834F
:100B600089819A8101969A83898389819A814097A4
:100B700074F288E290E022E4FC01208388E290E0B5
:100B800028E230E0F90120812061FC01208388E225
:100B900090E0FC01108200000F900F900F900F90DA
:100BA000DF91CF9108950F931F93CF93DF93CDB72C
:100BB000DEB72E970FB6F894DEBF0FBECDBF87E22B
:100BC00090E02FEFFC01208388E290E0FC0110828E
:100BD00081E290E0FC01108282E290E02FEFFC01C4
:100BE000208386E0E2E1F1E0DE01199601900D92AA
:100BF0008A95E1F783E090E09C838B8310921F013C
:100C000081E090E0A0E0B0E080932001909321018A
:100C1000A0932201B09323018091200190912101A2
:100C2000A0912201B091230180932401909325018A
:100C3000A0932601B093270186EE92E090932901BC
:100C40008093280110922A0184EF91E0A0E0B0E0A7
:100C500080932B0190932C01A0932D01B0932E0132
:100C600080912B0190912C01A0912D01B0912E012A
:100C700080932F0190933001A0933101B093320102
:100C800087E792E09093340180933301109235010D
:100C900081E090E0A0E0B0E08093360190933701CE
:100CA000A0933801B09339018091360190913701BA
:100CB000A0913801B091390180933A0190933B01A2
:100CC000A0933C01B0933D018BEB91E090933F01E9
:100CD00080933E0181E090E0A0E0B0E08D839E83B0
:100CE000AF83B8878D819E81AF81B885BC01CD016E
:100CF0000E9467000E9495001A821982A0C0898113
:100D00009A81880F991F9E012F5F3F4F820F931F7B
:100D10000896FC0180819181FC0125813681478103
:100D2000508589819A81880F991FBE016F5F7F4F1F
:100D3000860F971F0896FC0180819181FC018181BB
:100D40009281A381B481281739074A075B0708F409
:100D500045C089819A81880F991F9E012F5F3F4F5F
:100D6000820F931F0896FC010081118189819A816D
:100D7000880F991F9E012F5F3F4F820F931F089688
:100D8000FC0180819181FC012185328589819A81D4
:100D9000880F991FAE014F5F5F4F840F951F089614
:100DA000FC0180819181FC018081082E000C990B4F
:100DB000F9010995F801808389819A81880F991F2B
:100DC0009E012F5F3F4F820F931F0896FC01808189
:100DD0009181FC01158216821782108689819A8181
:100DE000880F991F9E012F5F3F4F820F931F089618
:100DF000FC016081718189819A81880F991F9E0110
:100E00002F5F3F4F820F931F0896FC0180819181D5
:100E1000FC0125813681478150858D819E81AF817E
:100E2000B885820F931FA41FB51FFB01858396838E
:100E3000A783B08789819A8101969A8389832981C2
:100E40003A818B819C812817390708F458CF00001C
:100E5000809118018823E1F3109218014DCFA1E28F
:100E60001A2EAA1BBB1BFD010DC0AA1FBB1FEE1F24
:100E7000FF1FA217B307E407F50720F0A21BB30B6F
:100E8000E40BF50B661F771F881F991F1A9469F7EB
:100E900060957095809590959B01AC01BD01CF0147
:100EA0000895A29FB001B39FC001A39F700D811D43
:100EB0001124911DB29F700D811D1124911D089563
:040EC000F894FFCFD4
:100EC4000100000000000002000000009201000088
:080ED40000001F012A01350195
:00000001FF
